{
  "_format": "hh-sol-artifact-1",
  "contractName": "CertificateRegistry",
  "sourceName": "contracts/CertificateRegistry.sol",
  "abi": [
    {
      "inputs": [],
      "stateMutability": "nonpayable",
      "type": "constructor"
    },
    {
      "anonymous": false,
      "inputs": [
        {
          "indexed": false,
          "internalType": "string",
          "name": "referenceId",
          "type": "string"
        },
        {
          "indexed": false,
          "internalType": "string",
          "name": "name",
          "type": "string"
        },
        {
          "indexed": false,
          "internalType": "string",
          "name": "matricNumber",
          "type": "string"
        },
        {
          "indexed": false,
          "internalType": "address",
          "name": "issuer",
          "type": "address"
        }
      ],
      "name": "CertificateIssued",
      "type": "event"
    },
    {
      "inputs": [
        {
          "internalType": "string",
          "name": "",
          "type": "string"
        }
      ],
      "name": "certificates",
      "outputs": [
        {
          "internalType": "string",
          "name": "name",
          "type": "string"
        },
        {
          "internalType": "string",
          "name": "matricNumber",
          "type": "string"
        },
        {
          "internalType": "string",
          "name": "department",
          "type": "string"
        },
        {
          "internalType": "string",
          "name": "classOfDegree",
          "type": "string"
        },
        {
          "internalType": "string",
          "name": "date",
          "type": "string"
        },
        {
          "internalType": "bool",
          "name": "isRegistered",
          "type": "bool"
        },
        {
          "internalType": "address",
          "name": "issuer",
          "type": "address"
        }
      ],
      "stateMutability": "view",
      "type": "function"
    },
    {
      "inputs": [
        {
          "internalType": "string",
          "name": "_ref",
          "type": "string"
        },
        {
          "internalType": "string",
          "name": "_name",
          "type": "string"
        },
        {
          "internalType": "string",
          "name": "_matricNumber",
          "type": "string"
        },
        {
          "internalType": "string",
          "name": "_department",
          "type": "string"
        },
        {
          "internalType": "string",
          "name": "_classOfDegree",
          "type": "string"
        },
        {
          "internalType": "string",
          "name": "_date",
          "type": "string"
        }
      ],
      "name": "issueCertificate",
      "outputs": [],
      "stateMutability": "nonpayable",
      "type": "function"
    },
    {
      "inputs": [],
      "name": "owner",
      "outputs": [
        {
          "internalType": "address",
          "name": "",
          "type": "address"
        }
      ],
      "stateMutability": "view",
      "type": "function"
    },
    {
      "inputs": [
        {
          "internalType": "string",
          "name": "_ref",
          "type": "string"
        }
      ],
      "name": "verifyCertificate",
      "outputs": [
        {
          "components": [
            {
              "internalType": "string",
              "name": "name",
              "type": "string"
            },
            {
              "internalType": "string",
              "name": "matricNumber",
              "type": "string"
            },
            {
              "internalType": "string",
              "name": "department",
              "type": "string"
            },
            {
              "internalType": "string",
              "name": "classOfDegree",
              "type": "string"
            },
            {
              "internalType": "string",
              "name": "date",
              "type": "string"
            },
            {
              "internalType": "bool",
              "name": "isRegistered",
              "type": "bool"
            },
            {
              "internalType": "address",
              "name": "issuer",
              "type": "address"
            }
          ],
          "internalType": "struct CertificateRegistry.Certificate",
          "name": "",
          "type": "tuple"
        }
      ],
      "stateMutability": "view",
      "type": "function"
    }
  ],
  "bytecode": "0x608060405234801561001057600080fd5b50336000806101000a81548173ffffffffffffffffffffffffffffffffffffffff021916908373ffffffffffffffffffffffffffffffffffffffff1602179055506115e3806100606000396000f3fe608060405234801561001057600080fd5b506004361061004c5760003560e01c80638b23d875146100515780638da5cb5b146100815780638f2b91ea1461009f57806394973c97146100d5575b600080fd5b61006b60048036038101906100669190610c66565b6100f1565b6040516100789190610e42565b60405180910390f35b6100896104e2565b6040516100969190610e73565b60405180910390f35b6100b960048036038101906100b49190610c66565b610506565b6040516100cc9796959493929190610ee7565b60405180910390f35b6100ef60048036038101906100ea9190610f79565b610833565b005b6100f9610ab7565b60018260405161010991906110ea565b908152602001604051809103902060050160009054906101000a900460ff16610167576040517f08c379a000000000000000000000000000000000000000000000000000000000815260040161015e9061114d565b60405180910390fd5b60018260405161017791906110ea565b90815260200160405180910390206040518060e00160405290816000820180546101a09061119c565b80601f01602080910402602001604051908101604052809291908181526020018280546101cc9061119c565b80156102195780601f106101ee57610100808354040283529160200191610219565b820191906000526020600020905b8154815290600101906020018083116101fc57829003601f168201915b505050505081526020016001820180546102329061119c565b80601f016020809104026020016040519081016040528092919081815260200182805461025e9061119c565b80156102ab5780601f10610280576101008083540402835291602001916102ab565b820191906000526020600020905b81548152906001019060200180831161028e57829003601f168201915b505050505081526020016002820180546102c49061119c565b80601f01602080910402602001604051908101604052809291908181526020018280546102f09061119c565b801561033d5780601f106103125761010080835404028352916020019161033d565b820191906000526020600020905b81548152906001019060200180831161032057829003601f168201915b505050505081526020016003820180546103569061119c565b80601f01602080910402602001604051908101604052809291908181526020018280546103829061119c565b80156103cf5780601f106103a4576101008083540402835291602001916103cf565b820191906000526020600020905b8154815290600101906020018083116103b257829003601f168201915b505050505081526020016004820180546103e89061119c565b80601f01602080910402602001604051908101604052809291908181526020018280546104149061119c565b80156104615780601f1061043657610100808354040283529160200191610461565b820191906000526020600020905b81548152906001019060200180831161044457829003601f168201915b505050505081526020016005820160009054906101000a900460ff161515151581526020016005820160019054906101000a900473ffffffffffffffffffffffffffffffffffffffff1673ffffffffffffffffffffffffffffffffffffffff1673ffffffffffffffffffffffffffffffffffffffff16815250509050919050565b60008054906101000a900473ffffffffffffffffffffffffffffffffffffffff1681565b60018180516020810182018051848252602083016020850120818352809550505050505060009150905080600001805461053f9061119c565b80601f016020809104026020016040519081016040528092919081815260200182805461056b9061119c565b80156105b85780601f1061058d576101008083540402835291602001916105b8565b820191906000526020600020905b81548152906001019060200180831161059b57829003601f168201915b5050505050908060010180546105cd9061119c565b80601f01602080910402602001604051908101604052809291908181526020018280546105f99061119c565b80156106465780601f1061061b57610100808354040283529160200191610646565b820191906000526020600020905b81548152906001019060200180831161062957829003601f168201915b50505050509080600201805461065b9061119c565b80601f01602080910402602001604051908101604052809291908181526020018280546106879061119c565b80156106d45780601f106106a9576101008083540402835291602001916106d4565b820191906000526020600020905b8154815290600101906020018083116106b757829003601f168201915b5050505050908060030180546106e99061119c565b80601f01602080910402602001604051908101604052809291908181526020018280546107159061119c565b80156107625780601f1061073757610100808354040283529160200191610762565b820191906000526020600020905b81548152906001019060200180831161074557829003601f168201915b5050505050908060040180546107779061119c565b80601f01602080910402602001604051908101604052809291908181526020018280546107a39061119c565b80156107f05780601f106107c5576101008083540402835291602001916107f0565b820191906000526020600020905b8154815290600101906020018083116107d357829003601f168201915b5050505050908060050160009054906101000a900460ff16908060050160019054906101000a900473ffffffffffffffffffffffffffffffffffffffff16905087565b60008054906101000a900473ffffffffffffffffffffffffffffffffffffffff1673ffffffffffffffffffffffffffffffffffffffff163373ffffffffffffffffffffffffffffffffffffffff16146108c1576040517f08c379a00000000000000000000000000000000000000000000000000000000081526004016108b89061123f565b60405180910390fd5b6001866040516108d191906110ea565b908152602001604051809103902060050160009054906101000a900460ff1615610930576040517f08c379a0000000000000000000000000000000000000000000000000000000008152600401610927906112ab565b60405180910390fd5b6040518060e001604052808681526020018581526020018481526020018381526020018281526020016001151581526020013373ffffffffffffffffffffffffffffffffffffffff1681525060018760405161098c91906110ea565b908152602001604051809103902060008201518160000190816109af9190611481565b5060208201518160010190816109c59190611481565b5060408201518160020190816109db9190611481565b5060608201518160030190816109f19190611481565b506080820151816004019081610a079190611481565b5060a08201518160050160006101000a81548160ff02191690831515021790555060c08201518160050160016101000a81548173ffffffffffffffffffffffffffffffffffffffff021916908373ffffffffffffffffffffffffffffffffffffffff1602179055509050507f315718fe1cf53773ef0ddfc1ec282779231f79a538c5b1fa8c31dc3c9d7eb1d486868633604051610aa79493929190611553565b60405180910390a1505050505050565b6040518060e001604052806060815260200160608152602001606081526020016060815260200160608152602001600015158152602001600073ffffffffffffffffffffffffffffffffffffffff1681525090565b6000604051905090565b600080fd5b600080fd5b600080fd5b600080fd5b6000601f19601f8301169050919050565b7f4e487b7100000000000000000000000000000000000000000000000000000000600052604160045260246000fd5b610b7382610b2a565b810181811067ffffffffffffffff82111715610b9257610b91610b3b565b5b80604052505050565b6000610ba5610b0c565b9050610bb18282610b6a565b919050565b600067ffffffffffffffff821115610bd157610bd0610b3b565b5b610bda82610b2a565b9050602081019050919050565b82818337600083830152505050565b6000610c09610c0484610bb6565b610b9b565b905082815260208101848484011115610c2557610c24610b25565b5b610c30848285610be7565b509392505050565b600082601f830112610c4d57610c4c610b20565b5b8135610c5d848260208601610bf6565b91505092915050565b600060208284031215610c7c57610c7b610b16565b5b600082013567ffffffffffffffff811115610c9a57610c99610b1b565b5b610ca684828501610c38565b91505092915050565b600081519050919050565b600082825260208201905092915050565b60005b83811015610ce9578082015181840152602081019050610cce565b60008484015250505050565b6000610d0082610caf565b610d0a8185610cba565b9350610d1a818560208601610ccb565b610d2381610b2a565b840191505092915050565b60008115159050919050565b610d4381610d2e565b82525050565b600073ffffffffffffffffffffffffffffffffffffffff82169050919050565b6000610d7482610d49565b9050919050565b610d8481610d69565b82525050565b600060e0830160008301518482036000860152610da78282610cf5565b91505060208301518482036020860152610dc18282610cf5565b91505060408301518482036040860152610ddb8282610cf5565b91505060608301518482036060860152610df58282610cf5565b91505060808301518482036080860152610e0f8282610cf5565b91505060a0830151610e2460a0860182610d3a565b5060c0830151610e3760c0860182610d7b565b508091505092915050565b60006020820190508181036000830152610e5c8184610d8a565b905092915050565b610e6d81610d69565b82525050565b6000602082019050610e886000830184610e64565b92915050565b600082825260208201905092915050565b6000610eaa82610caf565b610eb48185610e8e565b9350610ec4818560208601610ccb565b610ecd81610b2a565b840191505092915050565b610ee181610d2e565b82525050565b600060e0820190508181036000830152610f01818a610e9f565b90508181036020830152610f158189610e9f565b90508181036040830152610f298188610e9f565b90508181036060830152610f3d8187610e9f565b90508181036080830152610f518186610e9f565b9050610f6060a0830185610ed8565b610f6d60c0830184610e64565b98975050505050505050565b60008060008060008060c08789031215610f9657610f95610b16565b5b600087013567ffffffffffffffff811115610fb457610fb3610b1b565b5b610fc089828a01610c38565b965050602087013567ffffffffffffffff811115610fe157610fe0610b1b565b5b610fed89828a01610c38565b955050604087013567ffffffffffffffff81111561100e5761100d610b1b565b5b61101a89828a01610c38565b945050606087013567ffffffffffffffff81111561103b5761103a610b1b565b5b61104789828a01610c38565b935050608087013567ffffffffffffffff81111561106857611067610b1b565b5b61107489828a01610c38565b92505060a087013567ffffffffffffffff81111561109557611094610b1b565b5b6110a189828a01610c38565b9150509295509295509295565b600081905092915050565b60006110c482610caf565b6110ce81856110ae565b93506110de818560208601610ccb565b80840191505092915050565b60006110f682846110b9565b915081905092915050565b7f4365727469666963617465206e6f7420666f756e642e00000000000000000000600082015250565b6000611137601683610e8e565b915061114282611101565b602082019050919050565b600060208201905081810360008301526111668161112a565b9050919050565b7f4e487b7100000000000000000000000000000000000000000000000000000000600052602260045260246000fd5b600060028204905060018216806111b457607f821691505b6020821081036111c7576111c661116d565b5b50919050565b7f4f6e6c79206f776e65722063616e2063616c6c20746869732066756e6374696f60008201527f6e00000000000000000000000000000000000000000000000000000000000000602082015250565b6000611229602183610e8e565b9150611234826111cd565b604082019050919050565b600060208201905081810360008301526112588161121c565b9050919050565b7f436572746966696361746520616c726561647920657869737473210000000000600082015250565b6000611295601b83610e8e565b91506112a08261125f565b602082019050919050565b600060208201905081810360008301526112c481611288565b9050919050565b60008190508160005260206000209050919050565b60006020601f8301049050919050565b600082821b905092915050565b60006008830261132d7fffffffffffffffffffffffffffffffffffffffffffffffffffffffffffffffff826112f0565b61133786836112f0565b95508019841693508086168417925050509392505050565b6000819050919050565b6000819050919050565b600061137e6113796113748461134f565b611359565b61134f565b9050919050565b6000819050919050565b61139883611363565b6113ac6113a482611385565b8484546112fd565b825550505050565b600090565b6113c16113b4565b6113cc81848461138f565b505050565b5b818110156113f0576113e56000826113b9565b6001810190506113d2565b5050565b601f82111561143557611406816112cb565b61140f846112e0565b8101602085101561141e578190505b61143261142a856112e0565b8301826113d1565b50505b505050565b600082821c905092915050565b60006114586000198460080261143a565b1980831691505092915050565b60006114718383611447565b9150826002028217905092915050565b61148a82610caf565b67ffffffffffffffff8111156114a3576114a2610b3b565b5b6114ad825461119c565b6114b88282856113f4565b600060209050601f8311600181146114eb57600084156114d9578287015190505b6114e38582611465565b86555061154b565b601f1984166114f9866112cb565b60005b82811015611521578489015182556001820191506020850194506020810190506114fc565b8683101561153e578489015161153a601f891682611447565b8355505b6001600288020188555050505b505050505050565b6000608082019050818103600083015261156d8187610e9f565b905081810360208301526115818186610e9f565b905081810360408301526115958185610e9f565b90506115a46060830184610e64565b9594505050505056fea2646970667358221220b6e4ab744786ba0d6bee9839fa212684b74e568ba44437e975e2cbfe538bc4e564736f6c63430008140033",
  "linkReferences": {},
  "deployedLinkReferences": {}
}